:020000040001F9
:10900000D8210020C1930100EB930100ED930100F2
:10901000EF930100F1930100F393010000000000C1
:10902000000000000000000000000000F5930100B7
:10903000F793010000000000F9930100FB93010089
:1090400055970100FD930100659A0100FD93010011
:10905000FD9301000000000039950100FD9301001F
:10906000FD930100FD930100FD930100FD930100BC
:10907000FD930100FD930100FD930100FD930100AC
:10908000FD930100A9970100FD930100FD930100EC
:10909000FD930100FD930100C1970100FD930100C4
:1090A000FD930100FD93010000000000000000009E
:1090B000FD930100FD93010000000000000000008E
:1090C00000000000000000000000000000000000A0
:1090D0000000000000000000000000000000000090
:1090E0000000000000000000000000000000000080
:1090F0000000000000000000000000000000000070
:10910000000000000000000000000000000000005F
:10911000000000000000000000000000000000004F
:10912000000000000000000000000000000000003F
:10913000000000000000000000000000000000002F
:10914000000000000000000000000000000000001F
:10915000000000000000000000000000000000000F
:1091600000000000000000000000000000000000FF
:1091700000000000000000000000000000000000EF
:1091800000000000000000000000000000000000DF
:1091900000000000000000000000000000000000CF
:1091A00000000000000000000000000000000000BF
:1091B00000000000000000000000000000000000AF
:1091C000000000000000000000000000000000009F
:1091D000000000000000000000000000000000008F
:1091E000000000000000000000000000000000007F
:1091F000000000000000000000000000000000006F
:10920000DFF80CD000F086F9004800478DB401006B
:10921000D821002030B450E8012F93B2C4892344F0
:109220008489A34228BF1B1B0489A34202BFBFF34A
:109230002F8F002007E0C3EA020340E80134002C2E
:10924000E9D14FF001000A6030BC704750E8012FAF
:10925000C2EA024240E801210029F7D1704730B448
:1092600050E8022F1FFAA2F3C488A34202BFBFF343
:109270002F8F00200DE0C48923448489A34228BF96
:109280001B1BC2EA034340E80234002CE8D14FF034
:1092900001000A6030BC704750E8022FC2EA224247
:1092A00040E802210029F7D17047034653E8022F16
:1092B000D988B2EB324F4FF0000017BF92B241EAAB
:1092C000014142EA014104E05A68B2EB324F08BF63
:1092D000012043E80212002AE8D1704730B4044666
:1092E00054E8000F0D4644E80053002BF8D11560F8
:1092F00030BC704730B4044654E8000F40EA010522
:1093000044E80053002BF7D1156030BC704730B4EF
:10931000044654E8000F00EA010544E80053002B1E
:10932000F7D1156030BC704730B4044654E8000FE4
:1093300080EA010544E80053002BF7D1156030BCEA
:10934000704730B4044654E8000F00EB010544E8D0
:109350000053002BF7D1156030BC704730B4044681
:1093600054E8000FA0EB010544E80053002BF7D1AF
:10937000156030BC704770B404464FF0000054E8EC
:10938000006F0D68AE4207BF44E80023012044E8A7
:1093900000630E60002B1CBF0020F0E770BC70471C
:1093A00030B4044654E8000F88422CBF451A0546E5
:1093B00044E80053002BF5D1156030BC7047000025
:1093C0000F4800680F4909680A280AD1002908D106
:1093D0000D4802686FF070031A404FF040031A43C3
:1093E00002600A4880470A480047FEE7FEE7FEE7BA
:1093F000FEE7FEE7FEE7FEE7FEE7FEE7FEE700002A
:109400003001001034010010E40E0040D997010033
:10941000019201002DE9F05F0546002092469B462F
:1094200088460646814640241BE02846414647467A
:10943000224600F05EF853465A46C01A914110D3B6
:1094400011461846224600F016F82D1A67EB01085F
:109450004F4622460120002100F00DF817EB0009CD
:109460004E41201EA4F10104DFDC484631462A4665
:109470004346BDE8F09F202A04DB203A00FA02F1BF
:10948000002070479140C2F1200320FA03F31943F2
:1094900090407047004870478CE6010040EA0103A5
:1094A0009B0703D009E008C9121F08C0042AFAD29A
:1094B00003E011F8013B00F8013B521EF9D270475E
:1094C000D2B201E000F8012B491EFBD27047002206
:1094D000F6E710B513460A4604461946FFF7F0FFB3
:1094E000204610BD421C10F8011B0029FBD1801A38
:1094F0007047202A04DB203A21FA02F0002170474D
:1095000021FA02F3D040C2F12002914008431946EB
:1095100070470000064C074D06E0E06840F001038C
:1095200094E8070098471034AC42F6D3FFF76CFE7E
:1095300000ED010020ED01002DE9F04F89B000277A
:10954000002008904FF4807007900126002412E05C
:10955000079802F05BFC40B100BF7B4800683040D8
:1095600018B1079802F044FC374376000798001DB5
:1095700080B20790641C082CEAD34FF4BE7002F04E
:1095800045FC50B14FF4BE7002F032FC47F000478A
:1095900008AA0121002002F011FCF8B200B3012654
:1095A00000241BE006EA0700B0B100BF674850F88E
:1095B0002400C0F30420804600BF644850F8240013
:1095C000C0F301408146204601F0E2F8054615B19E
:1095D00049464046A84700BF7600641C082CE1D3EA
:1095E00007F0004000287DD000200690059000255F
:1095F00005E04FF0FF3004A941F825006D1C002D57
:10960000F7D000BF0020069000245FE05048005DC6
:109610000390039820F0C0094D480057401C0028D3
:1096200053D004A9484602F03FF900284DD00398D2
:109630004FEA901A484601F0B3F8804601F0A8F8C6
:109640000290029810B9BAF1030F3DD1BAF1030F9D
:1096500003D105A9484602F032F900BF00BF4FF020
:10966000A041084600F5E06151F82910C1F3014816
:1096700000BF08A9484602F017F98346BBF1000F66
:1096800002D0B8F1020F05D0BBF1000F1BD1B8F129
:10969000030F18D1BAF1030F0FD1B8F1020F01D1A6
:1096A000032000E0022001904846019902F039FBB6
:1096B0000698401CC0B2069000BF029818B15146EF
:1096C0004846029A904700BF00BF641C042C9DD3FB
:1096D000069888B34FF0010803AA0121002002F088
:1096E0006DFB00E02DE000250BE003A850F82500FD
:1096F00008A951F82510884202D04FF0000802E076
:109700006D1C002DF1D000BFB8F1000F02D0002079
:10971000069010E000250CE003A850F8250008A9E9
:1097200041F8250005A850F8250004A941F82500B6
:109730006D1C002DF0D000BF069800287FF462AFAA
:1097400000BF09B0BDE8F08F046300401065004021
:109750003C13002010B54FF4807002F0BBF880B1CC
:109760004FF4807002F0BFF8012002F0C5F80D48F8
:10977000407930B901200B49487108460168002042
:1097800088474FF4827002F0A5F850B14FF4827010
:1097900002F0A9F8022002F0AFF8024801680120A7
:1097A000884710BD6811002010B5034A1068034AAD
:1097B0001168884710BD0000A01100209C110020F6
:1097C00010B503F051F910BD014802490860704717
:1097D0000090D0032812002010B501F05BFA28B1E8
:1097E0008E480088C0F304208D49086001F0BAFA61
:1097F00010B18C488C49486701F0F0FA30B18748C5
:10980000E0380068C0F342308849086001F024FB6A
:1098100028B18748006820F080708549086001F011
:1098200033FB48B10020834908604FF08041C1F804
:1098300010017E49091F086001F064FB18B1032084
:109840007A496431086001F075FB68B105207A49F6
:109850000860012078497831086000207649083195
:1098600008603F20091F086001F07CFB002855D0EC
:109870006A48E0300068714908606848E430006870
:10988000091D08606548E8300068091D08606348E4
:10989000EC300068091D08606048F0300068091D60
:1098A00008605E48F4300068091D08605B48F830C5
:1098B00000686249203108605848FC300068091D82
:1098C00008605F480068091D08605D48001D006869
:1098D000091D08605A4808300068091D086058488A
:1098E0000C300068091D0860554810300068534965
:1098F00040310860524814300068091D0860504823
:1099000018300068091D08604D481C300068091DAA
:1099100008604B4820300068091D086001F082F99A
:1099200010B1FB204749086001F08AF930B13B488B
:10993000CC38006800F04F004349086001F0D4F9CA
:1099400040B14248006800F0010018B16FF001001A
:109950003E49086001F01EFA28B13D48006840F415
:1099600080603B49086001F025FA28B1364800685C
:1099700040F00F00344908603648006800F00040AD
:1099800028B93448001D006800F00040F0B3012001
:109990003149086000BF314800680028FBD015201D
:1099A0002C49086000BF2D4800680028FBD0152115
:1099B0002848001D016000BF284800680028FBD02F
:1099C00000202549086000BF244800680028FBD01B
:1099D00000BF00BF00BF00BF00BFBFF34F8F00BF7D
:1099E00000BF00BF1248F038006800F4E0601C4976
:1099F0000843001D0E49F039086000BF00BF00BFDA
:109A0000BFF34F8F00BF00BF00BF00E002E000BF08
:109A100000BFFDE7FFF7D8FE10BD000024030010D3
:109A2000403501400DF0ADBA00C007403C05004094
:109A3000FCED00E00C0100401056004020C5004045
:109A40002404001018F50040E40E0040000400401B
:109A50003C1700400012001004E5014000E4014002
:109A60000000FA0510B502490868804710BD0000E3
:109A70007011002002E008C8121F08C1002AFAD1A4
:109A800070477047002001E001C1121F002AFBD17E
:109A9000704700000146202908DA012088400A4A60
:109AA000104008B1012070470020FCE7402909DA86
:109AB000A1F12000012202FA00F008B10120F2E732
:109AC0000020F0E70120EEE7FC06FFBD00BFEFF34A
:109AD0001081084672B6704770B592B004265920BE
:109AE000ADF800001E4902911720ADF804003C219A
:109AF00003A8FFF7ECFC00208DF80C008DF80F6038
:109B0000CDF830D018211748FFF7E1FC05201549A2
:109B10000870002048600875A020886000208881B7
:109B20001148021D016803A800F0E1F9044600BFD6
:109B3000254625B100BF284600F098F800BF00BFB9
:109B4000084A0949094872DF044600BF254625B185
:109B500000BF284600F08AF800BF00BF12B070BDF9
:109B60002C1100202C1200201C11002018110020A4
:109B700070B501210D48007873DF044600BF25460B
:109B800025B100BF284600F071F800BF00BF0220D9
:109B900000F096FB044600BF254625B100BF2846CD
:109BA00000F064F800BF00BF70BD00001811002075
:109BB00072B600BF02F024FC00BF00BF02F0F4F94F
:109BC0000028FBD100BF00BF1D491E4A891AC908E1
:109BD000012242EA01401CA102F072FB00BF1D48B5
:109BE000006800F0010000B100BE00BF1449154A32
:109BF000891AC908022242EA014017A102F060FB5B
:109C000000BF00BF00BF00BF00BFBFF34F8F00BF4A
:109C100000BF00BF0F48E438006800F4E06012495C
:109C20000843001D0B49E439086000BF00BF00BFB6
:109C3000BFF34F8F00BF00BF00BF00BF00BFFDE7F5
:109C400080ED010030ED0100466174616C206572A9
:109C5000726F7200F0ED00E053797374656D2072DD
:109C600065736574000000000000FA053EB5044607
:109C7000002000900190029002946A46002144F274
:109C80000100FFF795FF3EBD10B5024800F080FED1
:109C900010BD00007811002038B51348006800900E
:109CA0000823582211491248006801F01DFD04469E
:109CB0000CB1204638BD0F4A69460F4800F06EFED1
:109CC00004460CB12046F5E701210B4800F008FFDF
:109CD00001230A4A1946084800F02CFE01200849D1
:109CE00008702046E6E70000B8E301009813002062
:109CF000A8E30100ADD4010078110020FFFF7F0030
:109D0000841100202DE9F04106460D4617463446E1
:109D1000207F10B10020BDE8F081A76101F092F929
:109D2000401941F10001C4E90201206900B1256137
:109D30002146002003F092FFEDE770B5044625466A
:109D4000002028772946012003F088FF70BD10B558
:109D50000446204603F0E4FC10BD000070B5044644
:109D600025460E488068B0B1ADB9FFF7AFFE064694
:109D70000A4800680A490860084840684FF0E02136
:109D8000C1F804010020054988601EB900BF62B611
:109D900000BF00BF00BF00BF70BD00000014002066
:109DA00000E100E0F8B505460C4617462088001D86
:109DB000B84201D90C20F8BD684679DF064600BFDD
:109DC000304600B1F7E700BF03202188685420889F
:109DD000401C20801920218868542088401C208045
:109DE00020884119BDF8000004F080F9218808445A
:109DF00020800020DFE770B505460C462068401C37
:109E000028B1206801F0A6FF206801F072FF6068A9
:109E1000401C18B10021606801F051FF2868A16959
:109E2000C0F8241500BF617D227D286841EA020345
:109E3000C0F86C3500BFD4E90012286802F028FF92
:109E4000207D012814D1A068401C18B10021A06811
:109E500001F035FFE068401C28B1E06801F07AFFAE
:109E6000E06801F046FFD4E90221286802F0F8FE1C
:109E700070BD70B505460C462068401C28B12068AE
:109E800001F073FF206801F040FF6068401C18B1CA
:109E90000021606801F020FF2868A169C0F824153E
:109EA00000BF617D227D286841EA0203C0F86C355D
:109EB00000BFD4E90012286802F024FF207D0128A9
:109EC00014D1A068401C18B10021A06801F004FF63
:109ED000E068401C28B1E06801F047FFE06801F04D
:109EE00014FFD4E90221286802F0EDFE70BD2DE9CF
:109EF000FC410546884616460024378800203080FD
:109F000095F82D0058B13A463146404600F0A5F884
:109F1000044600BF204608B1BDE8FC8100BFA87818
:109F200050B13A4631464046FFF73CFF044600BF79
:109F3000204600B1F0E700BFE87860B1E97848B2A8
:109F40003B463246414601F061F8044600BF2046D8
:109F500000B1E1E700BF686868B1696891F9000085
:109F60003B463246414603F0F6FE044600BF20461B
:109F700000B1D1E700BF288900280EDD4346062244
:109F8000022105F10800CDE9006704F011F904464B
:109F900000BF204600B1BFE700BF288A00280EDDC1
:109FA00043460722032105F11000CDE9006704F0C4
:109FB000FFF8044600BF204600B1ADE700BF288B84
:109FC00000280EDD43461522142105F11800CDE9C5
:109FD000006704F0EDF8044600BF204600B19BE79F
:109FE00000BF286A58B13B4632464146286A00F015
:109FF00049FC044600BF204600B18DE700BF686AF7
:10A0000058B13B4632464146686A01F04DFA044673
:10A0100000BF204600B17FE700BF95F82C00002864
:10A020000BDD3B4632464146284603F06DFC0446B4
:10A0300000BF204600B16FE700BF287858B13B460B
:10A0400032464146284601F0EBFA044600BF20465E
:10A0500000B161E700BF20465EE72DE9FC410546FF
:10A060000C46174620880930B84202D90C20BDE8BA
:10A07000FC8168466DDF064600BF304600B1F6E75A
:10A0800000BF0820218868542088401C20801B20A5
:10A09000218868542088401C208020882844DDF8CE
:10A0A00001100160BDF8051081802088801D20808E
:10A0B0009DF80000400818B900202188685402E08B
:10A0C0000120218868542088401C20800020CEE791
:10A0D00038B502F087FC044600BF254625B100BF15
:10A0E0002846FFF7C3FD00BF00BF0020009069466F
:10A0F000012002F0F1FA044600BF254625B100BF59
:10A100002846FFF7B3FD00BF00BF684602F08CFB96
:10A11000044600BF254625B100BF2846FFF7A6FD2F
:10A1200000BF00BF38BD000010B502460949885C79
:10A1300000BF4FF0A0442146D1F8043501248440EB
:10A140009C43C1F80845012484401C40C1F80C45DB
:10A1500000BF10BDD4E2010010B504460249085DFD
:10A16000012101F00DFE10BDD4E2010010B504463E
:10A170000249085D002101F003FE10BDD4E2010098
:10A1800010B50146094B585C00BF4FF0A044234670
:10A1900000BFD3F80445C44004F001040CB1012011
:10A1A00000E00020024682F0010010BDD4E2010070
:10A1B00010B5002403E02046FFF7CEFF641C042CFA
:10A1C000F9D310BD10B5002403E02046FFF7CEFF01
:10A1D000641C042CF9D310BD02464FF0FF3000215F
:10A1E00006E0054B5B5C934201D1084602E0491C46
:10A1F0000429F6D300BF7047D8E201002DE9F041F1
:10A2000006460F464FF0000800243046FFF7E4FFF3
:10A210000446042C3ED20FB3012F02D0022F38D1B6
:10A2200030E004EB4400214911F8008004EB4400C5
:10A230000844407850B11E4A4FF480411D480068E0
:10A24000FFF760FD05460DB91948067004EB4400A0
:10A25000164908448078184908551AE015480068DE
:10A26000FFF76BFD1448005D04EB44010F4A1144F5
:10A270008978884205D104EB44001146084490F8DF
:10A28000028006E004EB44000849084490F801808D
:10A2900000BF00BFB8F1000F06D00848006818B131
:10A2A0004046064909688847BDE8F081A8120020A9
:10A2B00054110020E4E2010055110020501100204B
:10A2C00070B5044600250548007800F0010018B17B
:10A2D000204600F005F80546284670BD48110020CC
:10A2E0002DE9F047044600260025DA48007820B121
:10A2F0000020D849087001F047F8182C7ED2DFE81A
:10A3000004F00C16174A7EB2F6F4F3F2F1F0EFEE19
:10A31000EDECEBEAE9E8E7E6E5E401F035F8CE48F4
:10A320000068FFF70AFD0646CC4804708DE100BFC7
:10A330000020FFF725FF58B10020FFF70DFF022C8A
:10A3400002D14FF4E16001E04FF47A60054609E084
:10A350000020FFF70BFF022C01D1C82001E04FF4D1
:10A36000C8700546BD4804704FF40040A5FB0010BE
:10A370004FF47A73CF1840F100015A000023384699
:10A38000FFF748F8814600224946B3480068FFF7C6
:10A39000B9FC064659E10020FFF7F2FE58B1002053
:10A3A000FFF7DAFE032C02D14FF4487001E04FF4BE
:10A3B0007A60054609E00020FFF7D8FE032C01D1A2
:10A3C000C82001E04FF4C8700546A44804704FF45B
:10A3D0000040A5FB00104FF47A728F1840F1000185
:10A3E000520000233846FFF715F8814600224946FF
:10A3F00099480068FFF786FC064626E124E1002024
:10A40000FFF7BEFE58B10020FFF7A6FE042C02D1D4
:10A410004FF47A6001E04FF47A6005460AE00020CC
:10A42000FFF7A4FE042C02D14FF4C87001E04FF4F2
:10A43000C8700546894804704FF40040A5FB001021
:10A440004FF47A73CF1840F100015A0000233846C8
:10A45000FEF7E0FF8146002249467F480068FFF78B
:10A4600051FC0646F1E00020FFF78AFE50B10020C3
:10A47000FFF772FE052C01D1C82001E04FF47A608D
:10A48000054609E00020FFF771FE052C01D1C82028
:10A4900001E04FF4C8700546704804704FF4004066
:10A4A000A5FB00204FF47A73D71840F100015A0041
:10A4B00000233846FEF7AEFF814600224946664833
:10A4C0000068FFF71FFC0646BFE0B8E0B6E0AAE070
:10A4D000A1E098E092E05FE05DE05BE059E057E0EA
:10A4E00051E042E033E024E015E00EE0FFE7002019
:10A4F000FFF71AFE59480470002240F26661564880
:10A500000068FFF7FFFB06469FE00020FFF72EFEE6
:10A510005248047099E001204E490870FFF704FE8C
:10A52000002240F266614C480068FFF7EBFB0646EC
:10A530008BE0012047490870FFF7F6FD00224FF439
:10A54000005145480068FFF7DDFB06467DE001202D
:10A5500040490870FFF7E8FD002240F266613E487E
:10A560000068FFF7CFFB06466FE00120394908700D
:10A57000FFF7DAFD00224FF4005137480068FFF77B
:10A58000C1FB064661E0FFF71DFE344804705CE045
:10A5900000BF00BF00BF00BF31480068FFF7CDFB20
:10A5A0000646C4F1110515B30EBB012D18D9A8B28A
:10A5B000C82148434FF4004180FB01104FF47A72E8
:10A5C0008F1840F10001520000233846FEF722FFA9
:10A5D00081460022494622480068FFF793FB064661
:10A5E0000220FFF7C3FD01201E49087005E002208C
:10A5F000FFF7B2FD00201B49087026E000F0C4FE02
:10A600001648047021E000F0BFFE0020FFF7AEFD09
:10A610001248047019E000F0B7FE0120FFF7A6FD14
:10A620000E48047011E000F0AFFE0020FFF79EFD21
:10A630000120FFF79BFD0948047006E000BFFFF70B
:10A64000C1FD0648047000E000BF00BF3046BDE811
:10A65000F087000045110020DCE2010044110020D9
:10A66000E0E201004C1100202DE9FC4704460D46B4
:10A670001646A71C4FF001080020019001A8FFF723
:10A6800066FB3048006828602E4800682D494968FC
:10A69000411A2C488068401CA0EB010915E00121FB
:10A6A000294801F07BF800F08DFE8246514626488D
:10A6B00001F074F82348006822494968411A21488A
:10A6C0008068401CA0EB010900BF4F45E7D8B8F1F6
:10A6D000000F30D00021009176B1009921F00301E4
:10A6E000491C0091009921F00401091D0091009975
:10A6F00064F3891100910DE0009921F00301891C98
:10A700000091009921F00401091D0091009964F362
:10A710009F5100910B4909680A4A92681140094A01
:10A720000C3202EB81000099016006490968394446
:10A730000C3A116000BF9DF80400FFF70FFB404684
:10A74000BDE8FC87B0150020CC19002070B5044688
:10A750000D460A2D03D10D212046FFF7F7FFA16812
:10A76000481CA06020684554D4E90110884202D3F7
:10A77000204601F05EF970BD04484068034909684D
:10A78000884201D1012070470020FCE7B01500206D
:10A790000146024850F8210070470000EC120020EA
:10A7A00001460148405670471C13002070B505460D
:10A7B0000DB9094C01E0084C083409E0204600F0CE
:10A7C000DCFD064606B904E028467168884700BFEC
:10A7D000F4E700BF70BD0000E012002010B5044691
:10A7E0002CB90120064948700020FFF7DFFF012C3B
:10A7F00004D1012002498870FFF7D8FF10BD000086
:10A80000D81200202DE9F047024613468C46D3E9C2
:10A810000245DCE90267B6EB040877EB050002D3DA
:10A820000120BDE8F0870020FBE7014608880628E4
:10A8300008DB0888B0F5486F06DD08884FF6FF7220
:10A84000904201D0072070474888062808DB4888D6
:10A85000B0F5486F06DD48884FF6FF72904201D090
:10A860000720F0E708884FF6FF72904208D048882A
:10A87000904205D008884A88904201DD0720E2E72F
:10A880000020E0E72DE9F04107460D4614469846C2
:10A890002088801D404502D90C20BDE8F081384653
:10A8A000FFF7C3FF064600BF304600B1F5E700BF23
:10A8B0000520218868542088401C2080122021888F
:10A8C00068542088401C208022885119388803F061
:10A8D0000DFC21880844208022885119788803F0D3
:10A8E00005FC2188084420800020D6E710B500210F
:10A8F000034800F069FF044684F3100010BD000017
:10A90000CC19002070B505460C464FF4803000FA93
:10A9100004F1284600F052FB70BD70B505460C46A8
:10A920004FF4A07000EB840086B23146284600F058
:10A930005FFB70BD2DE9F04704460D4616461F46E5
:10A940004FF4803000FA05F84FF4A07000EB85005A
:10A950001FFA80F926F07F464146206801F0A7FEE5
:10A960004146206801F09DFE4946206801F092FEB4
:10A9700032462946206801F084FE4146206801F0F5
:10A9800093FE1FB14146206801F094FEBDE8F087B8
:10A9900010B50446206801F079FE10BD2DE9F0479E
:10A9A00004460D4617466079304941F820706079B9
:10A9B0002F4901EBC000007968B108262D492E4AC5
:10A9C000891AC908022242EA01402CA101F078FC50
:10A9D0003046BDE8F08729882068C0F8081500BF18
:10A9E00094F90420AB7810461946002808DB4FEA9A
:10A9F000417C4FEA1C68DFF8A8C00CF800800BE02F
:10AA00004FEA417C4FEA1C69DFF898C000F00F085C
:10AA1000A8F104080CF8089000BF00BF94F90410D6
:10AA20000846002809DB00F01F0301229A40430971
:10AA30009B0003F1E023C3F8002100BF00BF012009
:10AA400061790B4A02EBC10108716079114641F846
:10AA5000304000260749084A891AC908032242EAF9
:10AA6000014011A101F02CFC3046B2E79C110020FE
:10AA7000A011002068ED010030ED01005254432088
:10AA8000696E7374616E636520616C72656164796F
:10AA900020696E697469616C697A65642E000000D2
:10AAA00000E400E018ED00E05254433A20696E697A
:10AAB0007469616C697A65642E00000010B5014606
:10AAC00091F90400002807DB00F01F0301229A40DF
:10AAD000024B440943F8242000BF10BD00E200E00F
:10AAE00070B505460C4622460221284600F072FA4F
:10AAF00070BD10B504464FF48271204600F078FA1C
:10AB000010BD10B504460021206801F0D6FD10BD2F
:10AB100010B504460421206801F0CFFD10BD2DE9D9
:10AB2000F84F04460D46164699464FF4803000FA19
:10AB300005FB4FF4A07000EB850080B2009026F07A
:10AB40007F465946204600F039FA206801F09EFD04
:10AB50000746206800F5A86151F825108A463A4654
:10AB60002946206801F08DFD2068009901F092FDD2
:10AB70003946504602F0ECFF012806D1102002F0C1
:10AB8000F5F82068009901F085FD206801F07EFD50
:10AB900007463946304602F0DBFF804659462068BA
:10ABA00001F082FDB8F1010F0FD1721C2946206817
:10ABB00001F067FD102002F0D9F8206801F066FD71
:10ABC000B84227D00D20BDE8F88F324629462068CC
:10ABD00001F057FD206801F059FD0746701E394607
:10ABE00002F0B6FF80466FF07F40A0EB09004045C1
:10ABF00001D20D20E7E7B8F1000F0BD1721C2946F6
:10AC0000206801F03EFD206801F040FDB84201D00F
:10AC10000D20D8E701225946204600F0DBF900203C
:10AC2000D1E70000054800680A2805D10348001D47
:10AC3000006808B9012070470020FCE730010010CF
:10AC400013480078062820D11148001D007800F034
:10AC50000F00D0B90E480830007800F0F00030281E
:10AC600001D1012070470A480830007800F0F00058
:10AC7000402801D10120F5E705480830007800F0B0
:10AC8000F000502801D10120ECE70020EAE70000A5
:10AC9000E00F00F013480078062820D11148001D6D
:10ACA000007800F00F00D0B90E480830007800F0AE
:10ACB000F000302801D1012070470A4808300078A0
:10ACC00000F0F000402801D10120F5E705480830E8
:10ACD000007800F0F000502801D10120ECE70020BE
:10ACE000EAE70000E00F00F01C4800680A280BD1DA
:10ACF0001A48001D006808B9012070471748001D58
:10AD00000068012800D1F8E715480078062822D10C
:10AD10001348001D007800F00F00E0B9104808301B
:10AD2000007800F0F000302801D10120E5E70C4860
:10AD30000830007800F0F000402801D10120DCE765
:10AD400007480830007800F0F000502801D10120B9
:10AD5000D3E70020D1E70120CFE700003001001049
:10AD6000E00F00F00A48007806280ED10848001DC0
:10AD7000007800F00F0040B905480830007800F076
:10AD8000F000302801D1012070470020FCE70000CE
:10AD9000E00F00F006480068062806D10448001DB0
:10ADA0000068062801D1012070470020FCE7000060
:10ADB00030010010084800680A280BD10648001D21
:10ADC000006808B9002070470348001D006801288A
:10ADD00000D1F8E70120F6E7300100101C480068B8
:10ADE0000A280BD11A48001D006808B901207047D5
:10ADF0001748001D0068012800D1F8E715480078C1
:10AE0000062822D11348001D007800F00F00E0B999
:10AE100010480830007800F0F000302801D10120FF
:10AE2000E5E70C480830007800F0F000402801D138
:10AE30000120DCE707480830007800F0F0005028D7
:10AE400001D10120D3E70020D1E70120CFE70000A6
:10AE500030010010E00F00F00A48007806280ED1FB
:10AE60000848001D007800F00F0040B90548083080
:10AE7000007800F0F000302801D101207047002058
:10AE8000FCE70000E00F00F01C4800680A280BD126
:10AE90001A48001D006808B9012070471748001DB6
:10AEA0000068012800D1F8E715480078062822D16B
:10AEB0001348001D007800F00F00E0B9104808307A
:10AEC000007800F0F000302801D10120E5E70C48BF
:10AED0000830007800F0F000402801D10120DCE7C4
:10AEE00007480830007800F0F000502801D1012018
:10AEF000D3E70020D1E70120CFE7000030010010A8
:10AF0000E00F00F00A48007806280ED10848001D1E
:10AF1000007800F00F0040B905480830007800F0D4
:10AF2000F000302801D1012070470020FCE700002C
:10AF3000E00F00F00A48007806280ED10848001DEE
:10AF4000007800F00F0040B905480830007800F0A4
:10AF5000F000302801D1012070470020FCE70000FC
:10AF6000E00F00F0134800680A280BD11148001DBB
:10AF7000006808B9012070470E48001D00680128CC
:10AF800000D1F8E70C480078062810D10A48001DC7
:10AF9000007800F00F0050B907480830007800F042
:10AFA000F000502801D10120E5E70020E3E701206F
:10AFB000E1E7000030010010E00F00F070B504463A
:10AFC0000D462946206801F06CFB2946206801F0F7
:10AFD0006EFB70BD70B504460E46154631462068BE
:10AFE00001F062FB1DB13146206801F063FB70BDCA
:10AFF00070B505460C462868015929B121462868D4
:10B0000001F048FB012070BD0020FCE730B504468C
:10B010001088C01C984201D90C2030BD0220158830
:10B0200048551088401C108001201588485510880C
:10B03000401C108015884C551088401C1080002042
:10B04000EBE7000070B50B48FFF7A2FC0A4B0CCBF6
:10B05000841843F10005094903C9201A75EB010062
:10B0600004D24FF08073E41845F1000520462946CC
:10B0700070BD000078110020881100209011002080
:10B0800010B500F091FF08B901F0F0FA10BD2DE9FC
:10B09000FC5F83460E4691461F46DDE90C45002EB7
:10B0A00001DA704200E0304682464FF0010803E0CA
:10B0B0009AFBF9FA08F10108CA45F9DA474500D9BF
:10B0C000B84634B1002E03DB05F00400042800D19B
:10B0D000641E05F0020000B167B105F0010048B937
:10B0E00044B104E0641E20215846FFF72FFB0CB149
:10B0F000A045F7D3002E05DA76422D215846FFF7FA
:10B1000025FB07E005F00400042803D12B21584655
:10B11000FFF71CFB05F0020002280DD105F001002D
:10B1200050B94FB944B104E0641E30215846FFF7CE
:10B130000DFB0CB1A045F7D33B464A463146584675
:10B14000CDE9004502F0D8FFBDE8FC9F70B505468B
:10B150001249286801F08AFD286801F017FE0446AC
:10B160002046002817DB00F01F02012191400C4A05
:10B17000430942F8231000BF00BF00BFBFF34F8F49
:10B1800000BF00BF00BF00BF00BF00BFBFF36F8F95
:10B1900000BF00BF00BF00BF00BF70BD840202003F
:10B1A00080E100E070B505461249286801F091FD84
:10B1B000286801F0EFFD04462046002817DB00F068
:10B1C0001F02012191400C4A430942F8231000BF9D
:10B1D00000BF00BFBFF34F8F00BF00BF00BF00BF65
:10B1E00000BF00BFBFF36F8F00BF00BF00BF00BF35
:10B1F00000BF70BD1003420080E100E02DE9F04186
:10B2000004460E464FF48E71206801F022FD4FF483
:10B21000A271206801F01DFD1849206801F029FD88
:10B22000206801F0B3FD0546374628463946002818
:10B2300004DB4A07130E124A135408E04A074FEA88
:10B24000126C104A00F00F031B1F02F803C000BF6E
:10B2500000BF206801F09AFD05462846002809DB5A
:10B2600000F01F02012191404209920002F1E02208
:10B27000C2F8001100BF00BFBDE8F08180000200ED
:10B2800000E400E018ED00E02DE9F04104460E4630
:10B290004FF48871206801F00FFD4FF49071206821
:10B2A00001F00AFD4FF49271206801F005FD4FF4A2
:10B2B000A271206801F000FD4FF4AC71206801F02C
:10B2C000FBFC1949206801F007FD206801F062FDD0
:10B2D0000546374628463946002804DB4A07130E40
:10B2E000124A135408E04A074FEA126C104A00F061
:10B2F0000F031B1F02F803C000BF00BF206801F04E
:10B3000049FD05462846002809DB00F01F020121FF
:10B3100091404209920002F1E022C2F8001100BF00
:10B3200000BFBDE8F08100001003420000E400E02F
:10B3300018ED00E030B5024600201378C3F3800317
:10B34000D3B1137803F00303012B02D0022B10D1E9
:10B3500007E01388C3F383139B1C0C6823440B6022
:10B3600008E00B680225146805EB945423440B6035
:10B3700000E000BF00BF012030BD0146086808B1F1
:10B3800002680A607047000010B50848007850B1A4
:10B39000002405E0022C02D02046FEF7DDFE641CEE
:10B3A000042CF7D301E0FEF703FF10BD4C11002081
:10B3B00010B501F0CBFC00200149887010BD0000E1
:10B3C000D81200202DE9FF4100272E4800F0DFF9B8
:10B3D0002C48001F00F0DBF92B48406803902A48F6
:10B3E00085680398284028490C3101EB800800BF8C
:10B3F00003A94046FFF79EFF30B103982840224939
:10B400000C3101EB800800E000E0F1E700BF002410
:10B410000AE00398411C284003911B490C3151F864
:10B4200020004DF82400641C022CF2D3009800F098
:10B43000030001280DD0022814D1BDF806700421A4
:10B44000009801EB9050401E039901EB900003908F
:10B4500009E0BDF806700098C0F383100399084412
:10B46000039000E000BF00BF0648001F00F088F90D
:10B47000064616B1044903984860384604B0BDE852
:10B48000F0810000C8190020B015002002F006FC71
:10B4900001F098FFFEF71CFEFEF71EFBFEF768FBAF
:10B4A00000BFFFF7EDFDFCE72DE9F04105460E4634
:10B4B00014469846A888871C2088801C384440453C
:10B4C00002D90C20BDE8F081FE2F01D90C20F9E74C
:10B4D000781C218870542088401C2080FF202188FF
:10B4E00070542088401C208022889119288802F0FE
:10B4F000FDFD218808442080A88800280DDDA8686B
:10B5000008B90720DEE7AA8823889819A968FDF7FB
:10B51000C5FF2088A988084420800020D2E72DE9B3
:10B52000FF4F87B0044691461E46A2462546BAF80C
:10B5300006009AF805104843001F0690BAF806B0B6
:10B54000301DB0FBFBF00590301DB0FBFBF10BFB99
:10B5500011000490D9F8000081190698814202D99F
:10B560000698801B01E0D9F800000746C9F8007072
:10B5700003E02D680598401E059005980028F8D135
:10B5800003900498ABEB0008B84501D9384600E0B9
:10B590004046804623E00399089808440290281DFD
:10B5A000049908440190149828B14246DDE901103D
:10B5B000FDF774FF04E04246DDE90101FDF76EFF8F
:10B5C000002004902D68A7EB0807039840440390DF
:10B5D000BB4501D9384600E05846804600BF002FE1
:10B5E000D9D10BB0BDE8F08F70B503460C469CB1C5
:10B5F00000F0EAFE054600220AE0084800EB82015E
:10B6000008881E68B04202D11A60002070BD521C2A
:10B61000AA42F2D30520F9E70020F7E70000000076
:10B620002DE9F84F05460F4614469846287801281C
:10B6300004D1687810B90720BDE8F88F2088801CF5
:10B64000404508D82878012807D12088801C6978CF
:10B650000844404501D90C20EEE72088A8EB000003
:10B66000801E86B200962188891CC81969467DDF34
:10B67000814600BF484600B1DEE700BF28780228B7
:10B6800004D06878BDF80010884206DBBDF80000E1
:10B69000B04202DC4FF0090A0BE04FF0080A2878AC
:10B6A000012805D16878B04202DC6878009000E09B
:10B6B0000096BDF80000FE2801D90C20BCE7BDF8BB
:10B6C0000000401C218878542088401C208020885D
:10B6D00007F800A02088401C20802088BDF80010BA
:10B6E000084420800020A7E710B5044609B90E20C1
:10B6F00010BD92FBF3F003FB102008B10920F7E71F
:10B70000216000206060A060A281E38100BFEFE7BC
:10B7100070B504460D4629462046FDF77BFD18B15D
:10B720002A882168881870BD0020FCE770B505469E
:10B730000C4620886188884204D12846FDF7ACFD7C
:10B74000012070BD0020FCE770B504460D46294677
:10B750002046FDF784FD18B16A882168881870BDFD
:10B760000020FCE770B505460C46208861888842B9
:10B7700004D12846FDF76AFD012070BD0020FCE7DA
:10B7800010B504460021204600F013F810BD10B596
:10B7900004460121204600F022F810BDF8B5044609
:10B7A0000D466A4629462046FDF7CBFD0646009821
:10B7B000F8BDF8B504460D466A4629462046FDF711
:10B7C000A6FD06463046F8BDF8B504460D466A4665
:10B7D00029462046FDF782FD06463046F8BDF8B5FD
:10B7E00004460D466A4629462046FDF783FD064677
:10B7F0000098F8BDF8B504460D466A46294620462D
:10B80000FDF7ACFD06460098F8BDF8B504460026E5
:10B81000002000906846FEF79AFA20680068616888
:10B82000884215D920680068401E2268106001789F
:10B83000204600F033F80646207A21680978401A3D
:10B84000C5B220680079A84201DA2068057100BFFE
:10B850009DF80000FEF782FA3046F8BD0246D06837
:10B86000081A138AB0FBF3F0C0B27047F8B504466B
:10B870000D462E46002000906846FEF768FA3146D5
:10B880002046FFF7EBFF21680A68511C2368196006
:10B8900010709DF80000FEF761FAF8BD0246138AA9
:10B8A000D06801FB0300704730B502460B46D40850
:10B8B00002F00702012090401D5D284030BD30B5E8
:10B8C0000B46C20800F007009C5C012585402C4314
:10B8D0009C5430BD01464FF08040405808B10120D3
:10B8E00070470020FCE708B500224FF080410A5065
:10B8F0000958009100BF08BD014908607047000069
:10B9000008030040012291070A50704710B5002437
:10B910000C48007808B1852411E0002009498860AE
:10B9200048600861C860084801F0FEF9044601F06B
:10B93000B3F808B901F0EEF9012002490870204679
:10B9400010BD0000D8120020DDA7010008B50020BE
:10B9500000906846FEF7FBF90748C068401E06499C
:10B96000C8600846C06808B9FFF722FD9DF80000CE
:10B97000FEF7F4F908BD0000D81200202DE9F041CF
:10B9800088B004460F46154626781A4840F82650D7
:10B990001949386941F82600787F184988552022CE
:10B9A00039466846FDF77AFD04964FF00008207886
:10B9B0001249085C50B10DB1114800E00020024668
:10B9C0006946201D01F04CFB80460EE020780B49B3
:10B9D000085C50B90DB10B4800E0002002466946F2
:10B9E00004F10C0001F074FA8046404608B0BDE84E
:10B9F000F08100005C110020601100206411002023
:10BA000081DF01008DDD01000FB438B504460598D3
:10BA100010B938BC5DF814FB0020009006A8009017
:10BA20006A462046059900F012F80020009000BFF9
:10BA3000EFE770B50446A06800B970BDD4E904030F
:10BA4000A268216898470020A06000BFF5E72DE9B3
:10BA5000FC5F82460D4614460DB9BDE8FC9F00BF51
:10BA60002E786D1C06B9E1E0252E70D100274FF02D
:10BA7000010900BF2E782B2E0CD02D2E02D0302E97
:10BA80000CD103E047F001076D1C0AE047F0020704
:10BA90006D1C06E047F004076D1C02E04FF0000942
:10BAA00000BF00BFB9F1000FE4D14FF0000800BFA4
:10BAB0002A2E06D12168081D2060086880446D1C6C
:10BAC0000DE02E78302E01DB392E00DD07E06D1CF5
:10BAD000A6F1300008EB880100EB4108E8E700BF61
:10BAE0004FF0000B2E782E2E10D16D1C00BF2E783B
:10BAF000302E01DB392E00DD07E06D1CA6F1300091
:10BB00000BEB8B0100EB410BF1E700BF2E7800BF80
:10BB10006C2E01D0682E02D16D1C2E7800E000E062
:10BB2000F6E700BF692E21D008DC252E6DD0582EF7
:10BB300039D0632E0CD0642E6CD116E0702E4CD010
:10BB4000732E3ED0752E1FD0782E63D12AE065E08B
:10BB50002168081D2060D1F8009009F0FF000190D5
:10BB600050460199FEF7F2FD55E000BF2168081D1F
:10BB70002060D1F800905B460A2249465046CDE944
:10BB80000087FFF784FA46E02168081D2060D1F89D
:10BB900000905B460A2249465046CDE9008702F0F4
:10BBA000ABFA38E000BF2168081D2060D1F8009092
:10BBB0005B46102249465046CDE9008702F09CFAC8
:10BBC00029E02168081D2060086801903B46424634
:10BBD0005046019901F082FF1DE02168081D206098
:10BBE000D1F8009030215046FEF7B0FD7821504644
:10BBF000FEF7ACFD002008210B461022CDE9001015
:10BC00004946504602F078FA05E025215046FEF7F5
:10BC10009DFD00E000BF00BF6D1C03E031465046B3
:10BC2000FEF794FD287800287FF41AAF00BF9AF839
:10BC30000C0010B15046FFF7FCFE00BF0DE7F0B559
:10BC4000DDE9054500BF4FF0A0473E4641EA420707
:10BC500047EA830747EA042747EA054C06F5E06709
:10BC600047F820C0F0BDF0B5DDE9054500BF4FF055
:10BC7000A0473E4641EA420747EA830747EA0427CE
:10BC800047EA054C06F5E06747F820C0F0BD1CB553
:10BC90000446002000900346012201460190204600
:10BCA000FFF7CDFF1CBD1CB50446002000900346E5
:10BCB0000122014601902046FFF7D5FF1CBD7CB54F
:10BCC00005460C460020009023460246014601909E
:10BCD0002846FFF7B4FF7CBD7CB505460C46002026
:10BCE000009023460246014601902846FFF7BBFF1D
:10BCF0007CBD1CB50446002000900346012211467D
:10BD000001902046FFF79BFF1CBD1CB50446002098
:10BD1000009003460122114601902046FFF7A3FF41
:10BD20001CBD10B50A4600BF4FF0A043194601F5EF
:10BD3000E06353F8203023F4403401F5E06343F826
:10BD4000204053F8203043EA024401F5E06343F811
:10BD5000204010BD00BF4FF0A0410A46012303FA66
:10BD600000F1C2F8081500BF704700BF4FF0A041B6
:10BD70000A46012303FA00F1C2F8081500BF704714
:10BD800010B561B900BF00BF4FF0A04213460124B7
:10BD900004FA00F2C3F80C2500BF00BF0CE000BF9E
:10BDA00000BF4FF0A0421346012404FA00F2C3F88A
:10BDB000082500BF00BF00BF10BD000038B50B460E
:10BDC000074C24680094014606E05DF82140D4F851
:10BDD00010551560121D491CC4188C42F5D838BD89
:10BDE00008E3010001460148084470470060004034
:10BDF00038B504462046FFF7F5FF002101602046D4
:10BE0000FFF7F0FF0068009000BF38BD10B5044692
:10BE10002046FFF7E7FF0068012800D110BD002091
:10BE2000FCE72DE9F04F93B082460E461746984640
:10BE3000DDF87090304600F0C0FB18210DA8FDF72A
:10BE400046FB0D97CDF83880CDF8489000252B465D
:10BE5000082207A9304600F0C7FB082509980A9078
:10BE6000BDF82000ADF82C00BDF82200ADF82E0082
:10BE700000208DF83100079800F0030001281BD145
:10BE800007984FEA902B0798C0F3C2008DF8300056
:10BE90000798C0F38314A2002B4601A9304600F096
:10BEA000A3FB05EB84050DA80AAB224601A900906F
:10BEB000584600F0C1FA27E0079800F00300022876
:10BEC00022D107984FEA905B0798C0F3C2008DF823
:10BED000300000BFBBF1080F01D2584600E0082037
:10BEE00004462B46224605A9304600F07DFB25443A
:10BEF000ABEB040B0DAB0AAA214605A800F006FA2D
:10BF0000BBF1000FE6D100BF304600F05EFB13B07E
:10BF1000BDE8F08F7047000070B505460A4C2078E8
:10BF20000A49085C18B1201D01F04AF907E02078A1
:10BF30000649085C18B904F10C0001F065F800BF6F
:10BF4000002001F045FF70BDB411002064110020F5
:10BF500038B504460D4604484023044A294600905B
:10BF60002046FFF75EFF38BD89D801001814002075
:10BF700010B502460B4C04EBC203012906D002297E
:10BF800006D0032906D0042908D105E0022007E0E5
:10BF9000042005E0187903E0587901E0002000BF93
:10BFA00000BF10BD30ED01002DE9F04F8BB0FEF762
:10BFB000E3FB18B100200BB0BDE8F08F0020B749BB
:10BFC000C1F8180400BF00BF00BFBFF34F8F00BF10
:10BFD00000BF00BF084640680A90084684680A9877
:10BFE00020400C3101EB800A00250026002006903D
:10BFF00000BF0AA95046FFF79DF9A8B1A748D0F89D
:10C00000180488B9A54800680A99884205D8A34849
:10C010000068A24948600020CDE70A9820409F4967
:10C020000C3101EB800A00E000E0E2E700BF0027EE
:10C030000BE00A98411C20400A9198490C3151F8B4
:10C04000200007A941F827007F1C022FF1D3079891
:10C0500000F0030002287CD10798800D0590502144
:10C060000798B1EB905F02DD0798800D00E050204B
:10C070008146079869F39F50079009F108000490E2
:10C080000798C0F3C20006908548049900F038FA7A
:10C090000546002D5BD0284600F08FFA3346082273
:10C0A00007A9284600F0B1FA08360A982040611C1A
:10C0B000081A4FEA8008C14535D9B8F1000F06D0FB
:10C0C0000A98204075490C3101EB800001E073486B
:10C0D0000C300390B8F1000F01D0404600E0484614
:10C0E00000F0FF0BB8F1000F02D06C480C3000E0FC
:10C0F00000200290B8F1000F02D0A9EB080000E088
:10C100000020C0B2019033465A462846039900F0F9
:10C110007CFA5E44029828B133462846DDE90121C5
:10C1200000F073FA0CE00A9820405C490C3101EBF6
:10C13000800B33464A465946284600F066FA00BF4F
:10C140000598C01C0A9901EB90000A9000BF44E0DA
:10C15000FFE7079800F0030001283ED10798C0F3DD
:10C160008310062803DA0798C0F3831000E0062046
:10C17000079960F3891107910798C0F3831000F1C4
:10C1800002080798C0F3C20006904FEA88014448AD
:10C1900000F0B6F90546FDB1284600F00EFA334628
:10C1A000082207A9284600F030FA083600270EE0DA
:10C1B0000A98421C20400A92384A0C3202EB800155
:10C1C00033460422284600F020FA361D7F1C0798CB
:10C1D000C0F38310B842EBD800BFE5B32F48D0F8C6
:10C1E0001084D0F8180418B1284600F0EEF931E0B8
:10C1F00019E04FF0000900BFD8F80C004079012881
:10C2000000D18146B9F1000F08D000BFD8F8000076
:10C21000294602684046904700BF00BFD8F80C008E
:10C22000D0F8008000BFB8F1000FE2D1284600F03E
:10C23000CCF90020059005A8FDF789FD1748D0F836
:10C24000180410B915490A9848609DF81400FDF7C4
:10C2500085FD00BF1DE0FFE71048D0F810840AE01C
:10C26000C146D9F8000081684846884700BFD8F821
:10C270000C00D0F80080B8F1000FF1D109490A4A4A
:10C28000891AC908022242EA014008A100F018F800
:10C2900000BFFEF771FA80F001008CE6B0150020B7
:10C2A000A0ED010080ED010030ED01004261636B03
:10C2B000656E647320666C757368656400000000C9
:10C2C00070B504460D4600231A462946204601F063
:10C2D000CDFB70BDF8B505460E461446009401230B
:10C2E0006A463146284601F0C1FBF8BD2DE9FC4104
:10C2F00006460F4614461D460094019502236A46E1
:10C300003946304601F0B2FBBDE8FC812DE9F05F13
:10C3100007460E4690461D46082E01D9BDE8F09FFF
:10C3200095F80C90002028732946404601F058F8F3
:10C3300000240CE0B44205D23A5D1DA12846FFF767
:10C3400063FB03E01CA12846FFF75EFB641C082C7E
:10C35000F0D31AA12846FFF757FB00241DE0B44292
:10C3600016D217F804A0BAF17E0F09DCFDF792F897
:10C37000006810F80A0000F03E0008B1504600E0E6
:10C380002E2083465A460EA12846FFF73DFB03E0C8
:10C390000CA12846FFF738FB641C082CDFD30122D0
:10C3A0002946404600F0EAFF85F80C9000BFB5E74B
:10C3B0002025303278000000202020007C00000082
:10C3C000256300002000000002480349401AC0080D
:10C3D00070470000A0ED010030ED010013B50C46E0
:10C3E00021466846FFF700F928B90448009A00EB97
:10C3F000C20108681CBD0020FCE7000030ED010010
:10C4000070B50C48D0F8104401200A4981F8200486
:10C410000CE000BF0120E168487100BF2546286894
:10C4200041682846884700BFE0680468002CF0D1C6
:10C4300070BD0000B01500202DE9FF4707460C46EF
:10C44000164698460C9D95F80C90002028732946B6
:10C45000404600F0C5FF072E47D2DFE806F004098A
:10C460000F161F2A370039462846FFF7CDFA3DE060
:10C47000394628462268FFF7C7FA37E0394628468A
:10C48000D4E90023FFF7C0FA30E0A06800903946F5
:10C490002846D4E90023FFF7B7FA27E0D4E90201E0
:10C4A000CDE9000139462846D4E90023FFF7ACFA6C
:10C4B0001CE0D4E902122069CDE90012029039464D
:10C4C0002846D4E90023FFF79FFA0FE0D4E90223BE
:10C4D000D4E90410CDE90023CDE9021039462846FD
:10C4E000D4E90023FFF790FA00E000BF00BF00226C
:10C4F0002946404600F042FF85F80C90BDE8FF87D2
:10C500002DE9F84F07468A46388AA0F104080AF157
:10C5100004004044401EB0FBF8F0C0B20090384622
:10C52000FFF773F9044614B90020BDE8F88F002026
:10C53000207101216171A4F8068025460098A0F1C0
:10C54000010B2C462F604FF0000912E03846FFF730
:10C550005CF9064636B16079401C60712E60376028
:10C56000354604E0204600F008F80020DDE709F138
:10C570000109D945EAD32046D7E72DE9F05F044603
:10C58000274697F805802646A8F1010B002501E013
:10C5900036686D1C5D45FBD3D6F800A02646002505
:10C5A00007E0D6F8009031465046FFF75FF94E4657
:10C5B0006D1C4545F5D3BDE8F09F70B50446254692
:10C5C0000121281DFFF7EAF870BDF8B5044626469C
:10C5D0000121301DFFF70EF900906D46287810B943
:10C5E0002046FFF7CAFFF8BD2DE9FC4105460E467F
:10C5F00014461F46019401203B4601AA3146009093
:10C600002846FEF78CFFBDE8FC812DE9FC4105467C
:10C610000E4614461F46019400203B4601AA3146AF
:10C6200000902846FEF77BFFBDE8FC8110B5002096
:10C630000A49087000BF0A49086000BF00BF00BF78
:10C6400000BFBFF35F8F00BF00BF00BF00BF054941
:10C65000054800F054FA002010BD0000B011002081
:10C66000AC110020F0E301000C14002010B500F024
:10C6700013FA10B141DF044602E020BF40BF20BFE3
:10C6800010BD00F5A86343F8212070470146D1F89A
:10C690000405704708B5002242504258009200BF7E
:10C6A00008BDC0F848137047C0F844137047C0F87D
:10C6B00008137047C0F804137047012242507047B6
:10C6C000014609B90E207047024800680860002042
:10C6D000F9E70000E8E50100FEB506460C462046F5
:10C6E000FFF7EEFF05460DB12846FEBD0020009085
:10C6F000019002908DF8006001208DF80200062163
:10C70000ADF8041069462020226869DF054675B13E
:10C71000284600F083FA07463C493D4A891AC90871
:10C72000012242EA01403A463A49FFF7D3FD002090
:10C730000090019002908DF8010069464020226827
:10C7400069DF054675B1284600F068FA07462F49AB
:10C750002F4A891AC908012242EA01403A462E4965
:10C76000FFF7B8FD00200090019002908DF80000C6
:10C7700069460120226869DF054675B1284600F048
:10C780004DFA07462149224A891AC908012242EA7C
:10C7900001403A462149FFF79DFD0020009001909D
:10C7A0000290F82000906946A120226869DF0546C2
:10C7B00075B1284600F032FA07461449144A891A1E
:10C7C000C908012242EA01403A461549FFF782FDB5
:10C7D00000200090019002908DF800006946A02092
:10C7E000226869DF054675B1284600F017FA07464A
:10C7F0000649074A891AC908012242EA01403A4615
:10C800000849FFF767FD00206FE7000090ED010089
:10C8100030ED0100D8EB010020EC010038EB010005
:10C8200084EB0100E4EA01002DE9F04104462568AB
:10C83000204660DF06462068A84225D91E491F4AC7
:10C84000891AC908022242EA01401DA1FFF738FDFA
:10C8500019491A4A891AC908022242EA01402A469D
:10C8600023A12368FFF742FD00F018FE2168471A54
:10C870001149124A891AC908022242EA01403A467D
:10C8800028A1FFF727FD00E000BF1EB901203049B5
:10C8900008700EE0304600F0C1F907460649074A25
:10C8A000891AC908012242EA01403A4629A1FFF744
:10C8B00011FD3046BDE8F08190ED010030ED010042
:10C8C000496E73756666696369656E742052414D81
:10C8D00020616C6C6F636174656420666F72207494
:10C8E000686520536F66744465766963652E000041
:10C8F0004368616E6765207468652052414D2073FE
:10C9000074617274206C6F636174696F6E206672FB
:10C910006F6D203078257820746F20307825782E40
:10C92000000000004D6178696D756D2052414D2009
:10C9300073697A6520666F72206170706C696361DB
:10C9400074696F6E20697320307825782E0000009E
:10C950002712002073645F626C655F656E61626CB4
:10C960006528292072657475726E65642025732EA2
:10C97000000000002DE9F04192B080461748007891
:10C9800010B912B0BDE8F0811CE03420049004A975
:10C9900005A861DF044604B115E005AD104901A802
:10C9A00000F0ADF809E000BF039806463768284656
:10C9B0007168B84701A800F0C3F800BF03980028C9
:10C9C000F1D100BFE1E700BF052C04D000BF204635
:10C9D000FDF74CF900BF00BFD3E70000271200208D
:10C9E000DCE501001CB51B48007808B108201CBD1F
:10C9F000012019490870002000F00EFF112801D114
:10CA00000020F4E7002000F025FF144800680190A2
:10CA1000002000906846FDF79AF9114901A810DF3F
:10CA200004460CB9012000E000200A4908709DF876
:10CA30000000FDF793F90CB12046D8E70020064925
:10CA400008700849087000F0B9FF012000F002FFEB
:10CA50000020CCE72412002026120020B8E50100B7
:10CA6000B19B0100251200203EB50A49684600F03E
:10CA700046F809E0684600F03FF80446256860681B
:10CA8000A847684600F05CF8684600F035F80028D2
:10CA9000F0D13EBDACE501000148007870470000D0
:10CAA000241200202DE9FF41074618E003A84BDFC0
:10CAB000044604B114E00F49684600F020F809E08C
:10CAC00000BF029805462E6869680398B04768461B
:10CAD00000F036F800BF02980028F1D100BFE5E76A
:10CAE00000BF052C04D000BF2046FDF7BFF800BFF3
:10CAF000BDE8FF81FCE5010001468868704770B51C
:10CB000004460D46256028686060204600F001F864
:10CB100070BD14E0D0E900215268914202D1002199
:10CB2000816070474168096842685268914203D049
:10CB3000416809688160F4E7416808314160E9E7CC
:10CB400010B50446A06800B910BD2168A0688968C6
:10CB50000844A060D4E901104968884205D16068A2
:10CB6000083060602046FFF7D4FF00BFECE770B5E7
:10CB700005460E466C6806E020683146AA68904774
:10CB800000B903E0246820680028F5D100BF2068C0
:10CB90003060266070BD01464868006870470146F5
:10CBA0004A6810684A68126822B14A6812681268B6
:10CBB0004B681A60704710B503460A460020596852
:10CBC00007E00C68944203D114680C60012003E074
:10CBD00009680C68002CF4D100BF10BD70B5024686
:10CBE0000D4B03F5947413E0E61AF01000EBD076C9
:10CBF000761003EBC6010D68954201D90C4606E09C
:10CC0000954202D201F1080301E0486870BD00BFFF
:10CC1000A342E9D30020F9E710E4010030B504464F
:10CC20002046FFF7DBFF05460DB9024830BD284618
:10CC3000FCE70000FCE301000146D1F88004C1F8E4
:10CC4000800470470246505808B101207047002008
:10CC5000FCE708B5002242504258009200BF08BDD0
:10CC6000C0F808154FF4A2631A507047C0F80813B3
:10CC70007047C0F8041370470246D2F80403084016
:10CC800008B1012070470020FCE7012242507047A4
:10CC900040F214531A5040F20C5319507047014699
:10CCA000D1F88004C1F8800470470246505808B19A
:10CCB000012070470020FCE708B50022425042588E
:10CCC000009200BF08BDC0F808154FF4A2631A50C7
:10CCD0007047C0F808137047C0F804137047014646
:10CCE00040F23C5040587047D0F800228A43C0F8C8
:10CCF00000227047012242507047014640F24C50DA
:10CD00004058704740F20C53195040F214531A50D7
:10CD10007047000010B500F04BF801200149086091
:10CD200000BF10BD1805004001460020064A1279D8
:10CD30000AB1852006E0044A11600122024B1A71F3
:10CD400000225A71704700006811002010B50C20B5
:10CD5000FEF7D8FD00BF00BF03480068C0F30040E5
:10CD60000028F8D110BD00001804004070B504463A
:10CD700004B970BD024EA5012846B04700BFF8E7D0
:10CD8000C1E301000146080B40B270470146080BA1
:10CD900040B270470146080B40B27047014601F0AF
:10CDA0006040B0F1005F01D1012070470020FCE736
:10CDB0002DE9F04106254FF08040FFF7E3FF0446E0
:10CDC0002046E21704EBD2625211920002F1E022F7
:10CDD000D2F800212146E31704EBD3635B11A4EBE7
:10CDE00043160123B3401A400AB1012200E0002299
:10CDF00062BB4FF08040FFF7C5FF04462E46204639
:10CE00003146002804DB4A07130E114A135406E08A
:10CE10004A07170E0F4A00F00F031B1FD75400BF1D
:10CE200000BF4FF08040FFF7ADFF044620460028CA
:10CE300009DB00F01F02012191404209920002F13A
:10CE4000E022C2F8001100BF00BF00BFBDE8F081C2
:10CE500000E400E018ED00E02DE9F84307460E4637
:10CE6000384600F00FFB0446D4B14FF00008002014
:10CE700000906846FCF76BFF207910B14FF0010875
:10CE800002E02660012020719DF80000FCF766FF9B
:10CE9000B8F1000F03D011252846BDE8F88300BF84
:10CEA00000252846F9E770B50546284600F0EAFA5D
:10CEB000044614B100202060207170BD10B50249F5
:10CEC000024800F0B5FF10BD4813002000200040CC
:10CED0002DE9F04105460E461746287900EB400142
:10CEE00001EBC0001A4901EB80044FF0000894F8F0
:10CEF0002A0020B14FF008084046BDE8F0812A79A9
:10CF0000144B53F822102868FFF7A6FF18B14FF012
:10CF100011084046F1E731462846FCF76CFF676090
:10CF200030692060606818B1317F2846FEF766F9E5
:10CF300028680421C0F8001500BF0020A061E0614E
:10CF400084F829006061012084F82A004046D4E773
:10CF50004813002058E301002DE9F04104460F4634
:10CF60009046207900EB400101EBC0001C4901EB29
:10CF70008005204600F036F818B111263046BDE88D
:10CF8000F081C5F81480AF600020286285F8280081
:10CF900000264FF48E712068FFF75BFE08212068A1
:10CFA000FFF773FE2946206800F0A2FE6868A0B96A
:10CFB0002946206800F081FE08B90F260BE000BF6B
:10CFC0004FF48E712068FFF73DFE0028F8D00C2149
:10CFD0002068FFF75AFE002068613046CFE7000066
:10CFE000481300200146087900EB400202EBC00024
:10CFF000044A02EB8000406908B10120704700201C
:10D00000FCE700004813002070B50446207900EBCF
:10D01000400101EBC0000C4901EB800520680021B4
:10D02000C0F8001500BF686810B12046FEF78EF802
:10D03000204600F025F92068FFF735FF002085F82D
:10D040002A00686070BD00004813002010B5024936
:10D05000024800F0B1FF10BD741300200020004012
:10D060002DE9F04105460E461746287900EBC00031
:10D07000194901EB80044FF0000894F8200020B11A
:10D080004FF008084046BDE8F0812A79134B53F869
:10D0900022102868FFF7E0FE18B14FF01108404653
:10D0A000F1E731462846FCF7E4FE6760306920600E
:10D0B000606818B1317F2846FEF7E6F82868082135
:10D0C000C0F8001500BF0020A061E0616061012090
:10D0D00084F820004046D6E77413002088E301005E
:10D0E0002DE9F047044688469146207900EBC000C0
:10D0F0002A4901EB80054046FFF750FE18B910267B
:10D100003046BDE8F087204600F04AF810B11126FD
:10D110003046F6E7C5F81490C5F8088000264FF4AD
:10D1200090712068FFF7C8FD4FF4AC712068FFF7DD
:10D13000C3FD20686A69A968C0F844154FF4A96363
:10D140001A5000BF08212068FFF7D4FD686818BB9B
:10D1500000BF4FF490712068FFF7A7FD82464FF49F
:10D16000AC712068FFF7A1FD0746BAF1000F01D1AD
:10D17000002FEED00FB10F260BE00C212068FFF737
:10D18000B9FD00BF4FF4AC712068FFF78EFD002899
:10D19000F8D00020686100BF3046B2E77413002069
:10D1A0000146087900EBC000044A02EB80004069A8
:10D1B00008B1012070470020FCE700007413002034
:10D1C00070B50446207900EBC000184901EB8005DA
:10D1D000686810B12046FDF7E5FF20212068FFF7C1
:10D1E00083FD04212068FFF785FD4FF4AC712068B2
:10D1F000FFF762FD0C212068FFF77CFD00BF4FF4B4
:10D20000AC712068FFF751FD0028F8D0206800219C
:10D21000C0F8001500BF204600F071F82068FFF745
:10D2200042FE002085F82000686070BD7413002065
:10D2300010B50446FDF706FF014A03C210BD000009
:10D240009011002010B504460548006830B104482C
:10D25000006800F083FC00200149086010BD000058
:10D26000801100200548D0E900304FF080729A18F4
:10D2700040F100000149C1E90020704788110020F9
:10D280002DE9F0470446206840F20C5109580D463C
:10D29000206840F2145109580E462068D0F808154D
:10D2A0000F4620684FF4A26109588846D4F80090D0
:10D2B0004FF0FF3211464846FFF7EAFC00BFD4F8B2
:10D2C00000904FF0FF3211464846FFF7C9FC00BFFF
:10D2D000681C10B12846FEF7DAFC701C10B130460D
:10D2E000FEF7D5FC08F1010010B14046FEF7CFFC77
:10D2F000781C10B13846FEF7CAFCBDE8F0872DE96E
:10D30000F0470446206840F20C5109580D46206849
:10D3100040F2145109580E462068D0F808150F46FF
:10D3200020684FF4A26109588846D4F800904FF065
:10D33000FF3211464846FFF7E5FC00BFD4F80090E5
:10D340004FF0FF3211464846FFF7BDFC00BF681C96
:10D3500010B12846FEF7A7FC701C10B13046FEF74E
:10D36000A2FC08F1010010B14046FEF79CFC781CBD
:10D3700010B13846FEF797FCBDE8F08770B504465B
:10D380000D461646207A05280CD0607A28B10A4846
:10D390000AA102682846FEF737FB09A12846FEF7D6
:10D3A00033FB04E01EB106A12846FEF72DFB2846FC
:10D3B000FEF73FFB70BD0000F81100202573000050
:10D3C0000D0A000070B5FFF731F9044600BF25468D
:10D3D00025B100BF2846FCF749FC00BF00BF70BD67
:10D3E000F8B504460D46E08838B116A00090E388F1
:10D3F00016A218A12846FEF707FB207A05281FD0A1
:10D40000607A58B1217AA088FEF7B2FD174951F829
:10D410002060324616A12846FEF7F6FA2846216813
:10D4200000F04AFCA0880021FEF7D8FF0646207ACB
:10D43000104951F8202033460FA12846FEF7E4FAA0
:10D44000F8BD00001B5B306D000000001B5B313B32
:10D4500033316D0025734C6F67732064726F707089
:10D460006564202825642925730D0A00F811002021
:10D4700025730000E41100203C25733E2025733AFB
:10D480002000000001460348814201D10248704754
:10D490000020FCE7002000407011002002480068D6
:10D4A000810201F1005070470C01001010B50446D4
:10D4B0002046FDF71EFB08B1FFF7D4FE00212046F1
:10D4C000FDF72BFA10B12046FFF7BCFE01212046E4
:10D4D000FDF723FA10B12046FFF7AAFE204600F020
:10D4E00073FB204600F040F810BD00002DE9F04726
:10D4F00006460F464FF00D0800203870FDF7A2FDDC
:10D50000D6E902321C1A62EB010500210846091B0C
:10D51000A84118DAB4F5350F04D3FCF7B5FB104970
:10D52000084400E0B06881464FF496034A46002163
:10D530000C48FDF7F4FA8046B8F1000F02D1012043
:10D54000BDE8F08703E000210648FDF7DBF9B8F1FC
:10D550000D0F03D1304600F001FB38700020EFE7DB
:10D56000FFFFB40078110020F8B5074646E000BF81
:10D570002448FFF710FB06460EB1304600E00020BD
:10D5800004460025002C31D01F48006808B9012549
:10D5900012E01D49D4E902300A68D2E90212591A90
:10D5A000904109D2012518480068007F20B1164833
:10D5B00001681448FFF7DBFABDB100F019FA044620
:10D5C00069462046FFF792FF58B10F48006810B92E
:10D5D0003846FDF796FA0C4804609DF8000018B92B
:10D5E0000DE000200849086007E008E006480068F0
:10D5F00010B93846FDF78CFA01E000BFB7E700BF6D
:10D60000F8BD0000ACE301008011002070B50546B4
:10D610000C46A06940B94FF484712846FFF719FB06
:10D6200000BFD5F8180570BD4FF484712846FFF788
:10D6300010FB00BFD5F81805C0B2626AE1688854D3
:10D64000606A401C606200BFEDE77FB504460D468E
:10D65000164601208DF80000029501966846D4E92F
:10D66000001290477FBD7FB504460D461646012047
:10D670008DF80000029501966846D4E900129047A3
:10D680007FBD000010B504462046FCF703FA10B930
:10D6900042F2010010BD2046002803DB1D4A125C47
:10D6A000520905E01C4A00F00F031B1FD25C52090F
:10D6B0001146082904D20120884000F0EC0008B986
:10D6C000002000E0012010B942F20200E2E7134816
:10D6D000806868B16009114951F8200004F01F0208
:10D6E00001219140084361090C4A42F821000EE0F3
:10D6F0002046002809DB00F01F0201219140420969
:10D70000920002F1E022C2F8001100BF00BF002029
:10D71000C0E7000000E400E018ED00E00014002085
:10D7200070B50446FCF7D2F9054614488068D8B9AC
:10D7300001201249886012480068124908400F49C8
:10D74000086010484FF0E021C1F880010C48803893
:10D75000D0F88400094948604FF0FF310848001DA7
:10D7600001600020207001E0012020701DB900BF81
:10D7700062B600BF00BF002070BD00000014002092
:10D7800080E100E0FC06FFBD38B504460D4624B13B
:10D79000012C1FD0032C38D132E00020002817DBE9
:10D7A00000F01F0201219140194A430942F8231059
:10D7B00000BF00BF00BFBFF34F8F00BF00BF00BF5F
:10D7C00000BF00BF00BFBFF36F8F00BF00BF00BF2F
:10D7D00000BF1BE0002000906846FCF7B8FA0D4837
:10D7E000007808B9FEF792F80A48C068401C094959
:10D7F000C860012088709DF80000FCF7AFFA05E0D2
:10D80000FFF788FAFEF7A2F800E000BF00BF38BDBE
:10D8100080E100E0D8120020FEB505460C496846BC
:10D82000FFF76DF90DE06846FFF766F904462668D4
:10D8300028466168B04708B91120FEBD6846FFF769
:10D840007FF96846FFF758F90028ECD100BFF4E7EC
:10D8500074E50100FEB505460A496846FFF74FF931
:10D860000AE06846FFF748F90446266828466168DA
:10D87000B0476846FFF764F96846FFF73DF90028AE
:10D88000EFD1FEBD90E501002DE9F05F0E46174691
:10D8900007F0FF0A002018490870184CB046D1461E
:10D8A000834620781649085C30B14A464146201D1F
:10D8B000FFF716FC83460AE020781149085C30B96E
:10D8C0004A46414604F10C00FFF746FB83465D469D
:10D8D00000BF00BF2C4624B100BF2046FCF7C6F9AC
:10D8E00000BF00BF00BF0748007818B102480078A9
:10D8F0000028F8D0BDE8F09FC8110020B411002026
:10D9000064110020C91100202DE9F04707460E469A
:10D9100014469A46B86A10B90720BDE8F0874FF060
:10D92000000836E008EB4801B86A00EB8105A888DA
:10D9300000F10209B9F1FE0F01D90C20EDE709F160
:10D940000100218870542088401C208016202188E6
:10D9500070542088401C208022889119288800F06B
:10D96000C5FB218808442080A88800280DDDA86810
:10D9700008B90720D1E7AA8823889819A968FBF776
:10D980008DFD2088A9880844208008F1010000F05E
:10D99000FF0897F82C004045C4DC0020BDE70000DC
:10D9A00070B504460D462CB901200349487000208B
:10D9B000FCF7FCFE70BD0000D812002070B51620E8
:10D9C000FFF760FE044600BF254625B100BF28468C
:10D9D000FCF74CF900BF00BF70BD10B500BF00F0F0
:10D9E00007F808B1002101770028F8D110BD000028
:10D9F00010B50448FFF7D3F804460CB1204610BD1B
:10DA00000020FCE7ACE301002DE9F05F05460E467F
:10DA100090461F46DDF828904FEA154AFCF766FF4E
:10DA200083464AEA0B42781C00EA09000E4941F895
:10DA3000202007EA090001EB8004206865F3C50097
:10DA40002060206868F389102060206866F39F20BA
:10DA50002060206820F00300401C2060206820F037
:10DA600004002060BDE8F09FBC1500202DE9FC47B4
:10DA70008046894616461C4617488768012201A938
:10DA80002046FCF7F1FDC8B1019800F1020A00251B
:10DA90000AE056F8252050460AF1010A38400E499E
:10DAA0000C3141F820206D1CA542F2D3009722468C
:10DAB00049464046019BFFF7A7FF00BF064890F884
:10DAC000200430B100BF00BFFEF76EFA0028FBD182
:10DAD00000BFBDE8FC870000B01500202DE9F0472D
:10DAE00081460C4615469846002608F00100A0B174
:10DAF00005E0641C761C39464846FCF727FE27786B
:10DB0000002FF6D104E06D1E20214846FCF71EFED2
:10DB1000B5421BD9002DF6D118E01CB12046FBF709
:10DB2000E1FC064604E06D1E20214846FCF70EFE8F
:10DB3000B54201D9002DF6D105E0641C761C3946AA
:10DB40004846FCF703FE2778002FF6D1BDE8F087A2
:10DB50000246501A20F07F407047000070B504461E
:10DB6000002517480078012827D104B3207FF0B1A1
:10DB7000FDF768FAD4E90223801A994118D3206985
:10DB800008B900202077D4E905108847206970B1D2
:10DB9000207F60B1D4E902302169591840F10000BA
:10DBA000C4E9021021460748FEF7E1FF012504E021
:10DBB00021460448FEF7DBFF0125284670BD000022
:10DBC00084110020ACE30100F8B5064669461F4801
:10DBD0000068FDF7B9FD044634E0207820B1012843
:10DBE0000DD0022821D11AE06068007F30B90120F1
:10DBF0006168087716486168FEF7B9FF16E01549B5
:10DC000060680968884203D100201249086005E075
:10DC10000F486168FEF7CFFF054600BF06E0FFF73B
:10DC2000DCFE01200C49087000E000BF00BF69461F
:10DC300006480068FDF77AFD694604480068FDF76C
:10DC400083FD0446002CC8D1F8BD0000A8E3010004
:10DC5000ACE301008011002084110020F8B50546D6
:10DC60000E4669460B480068FDF752FD04467CB13C
:10DC700025706660694607480068FDF773FD28B1A6
:10DC800000BF0548FCF71AFF00BF00BF0020F8BD29
:10DC90000420FCE7A8E301007811002070B5FBF731
:10DCA000FBFF044600BF254625B100BF2846FBF711
:10DCB000DDFF00BF00BF70BD704770B505460C4664
:10DCC000666910E004E094F8280008B1002070BDF7
:10DCD0004FF48E712846FEF7B5FF0028F3D0214699
:10DCE000284600F005F8206AB042EBD30120EEE7A9
:10DCF00070B505460C464FF48E712846FEF7A9FF15
:10DD0000216AA068465C206A401C20623046C5F843
:10DD10001C0500BF70BD7FB504460D4600208DF880
:10DD200000000295A0680190002060616846D4E977
:10DD3000001290477FBD7FB504460D4600208DF848
:10DD400000000295A0680190002060616846D4E957
:10DD5000001290477FBD30B504461088C01C984221
:10DD600001D90C2030BD0220158848551088401C70
:10DD700010800A20158848551088401C108015888E
:10DD80004C551088401C10800020EBE77FB50446FE
:10DD90000D462E4620788DF8000060680190217AAB
:10DDA0008DF80810E1680391044850F826100448E3
:10DDB00050F82620684690477FBD00006011002083
:10DDC0005C1100200122014B1A707047C81100201D
:10DDD00070B588B00546202211496846FBF75EFB06
:10DDE00006200090C01F0190029003904FF0EB704E
:10DDF00006900DB10B4800E00020024669460A4833
:10DE0000FDF7BCFD044600BF264626B100BF3046E4
:10DE1000FBF72CFF00BF00BF0448057008B070BDC1
:10DE200044E50100C5DD0100B4110020C911002046
:10DE30002DE9FF4105460C464FF400712846FEF7D8
:10DE40001BFF48B34FF492712846FEF7FBFE18B350
:10DE50004FF492712846FEF7FCFE4FF401712846FC
:10DE6000FEF704FF94F8290018B904212846FEF7AC
:10DE70000CFF02208DF800002846FEF7DDFE03901F
:10DE8000A1690291E06801900020A061E06168460C
:10DE9000D4E90012904737E004212846FEF7ECFE53
:10DEA000002831D04FF484712846FEF7CBFE58B3DA
:10DEB00021462846FFF7AAFB616AA069884223D160
:10DEC000E06970B1E668676AE069A0612069E060B6
:10DED0000020E0616062324639462046FFF7B5FB1C
:10DEE00012E094F8290018B904212846FEF7CDFE67
:10DEF0004FF401712846FEF7B9FE0020A061E268E8
:10DF0000616A2046FFF7A1FB4FF48E712846FEF7A9
:10DF100099FEB8B16669206AB04207D294F8280029
:10DF200020B921462846FFF7E3FE0AE04FF48E7140
:10DF30002846FEF78EFE606918B161692046FFF73A
:10DF4000EAFE00BF4FF4A2712846FEF77BFEA0B1A7
:10DF50004FF4A2712846FEF77CFE94F8290018B110
:10DF600000212846FEF791FEA06930B10020A06193
:10DF7000E268616A2046FFF768FBBDE8FF810000A8
:10DF80007FB504460D462E4620788DF80000606867
:10DF90000190217A8DF80810E1680391044850F847
:10DFA0002610044850F82620684690477FBD0000A0
:10DFB000601100205C1100202DE9FF4106460C464F
:10DFC0004FF492713046FEF770FEC8B14FF4927173
:10DFD0003046FEF771FE02208DF800003046FEF755
:10DFE0005EFE03903046FEF77AFE0290E0680190F4
:10DFF0000020A061E0616846D4E9001290472CE05F
:10E000004FF488713046FEF750FE30B34FF48871FC
:10E010003046FEF751FE3046FEF761FE0546A06928
:10E02000A84219D1E06980B1E76820213046FEF7A7
:10E030005BFEE069A0612069E0600020E0613A4693
:10E0400029462046FFF70FFB06E00020A061294685
:10E050002046E268FFF707FB00BF4FF4A27130468D
:10E06000FEF723FE90B14FF4A2713046FEF724FE76
:10E07000A06958B10020A061E0613046FEF72FFE94
:10E08000054629462046E268FFF7EDFA4FF4907105
:10E090003046FEF70AFE90B14FF490713046FEF71D
:10E0A0000BFE0C213046FEF725FE606938B1304684
:10E0B000FEF723FE054629462046FFF73CFE4FF4B7
:10E0C000AC713046FEF7F1FD70B14FF4AC713046E3
:10E0D000FEF7F2FD606938B13046FEF70EFE0546E8
:10E0E00029462046FFF727FEBDE8FF8102460A7059
:10E0F000100A4870022070472DE9FF4F81B0884612
:10E1000016461F46DDE90E4B45464FF0010A03E077
:10E11000B5FBF6F50AF1010AB542F9D2574500D927
:10E12000BA460BF0010098B994B10BF00200022836
:10E1300003D117B93020009001E02020009004E0C6
:10E14000641EDDE90010FCF701FB0CB1A245F7D31A
:10E15000012509E0012F01D97F1E04E0B8FBF5F984
:10E16000B14500D201E07543F4E700BF00BFB8FB42
:10E17000F5F909FB15880D4810F809100198FCF70E
:10E18000E5FAB5FBF6F5002DF1D10BF0010048B131
:10E1900044B104E0641E20210198FCF7D7FA0CB1C9
:10E1A000A245F7D305B0BDE8F08F0000C6E301003B
:10E1B0002DE9FC478046894615469A46DDE90A67FF
:10E1C0005346022249464046CDE9006700F017F861
:10E1D000044600BF204608B1BDE8FC8700BF534697
:10E1E000102229464046CDE9006700F008F80446B1
:10E1F00000BF204600B1EFE700BF0020ECE72DE9AB
:10E20000FF5F07468B4696461D460E9C4FF0000961
:10E2100020880390C84647E0786800EB88000068D3
:10E220000190002202A901A864DF064600BF304623
:10E2300010B104B0BDE8F09F00BF9DF80800704524
:10E2400030D1B9F1000F01D0002000E00220009091
:10E2500020889DF808100144009801440F988142DD
:10E2600001DD0C20E5E7B9F1000F0AD12088401C40
:10E270002080208805F800B02088401C20804FF0C6
:10E2800001092088421902A901A864DF064600BFDF
:10E29000304600B1CDE700BF21889DF80800084452
:10E2A000208000BF08F1010838884045B4DCB9F18E
:10E2B000000F0DD021880398401C081A1FFA80FA1D
:10E2C000BAF1FF0F01DD0C20B3E7039805F800A0B9
:10E2D0000020AEE7111213140D0E0F10681200206B
:10E2E00088120020B81200200D000300FDA10100DB
:10E2F0000E000300FDA101000F000300FDA10100BD
:10E3000010000300FDA10100000000506E7266784D
:10E310005F6770696F74655F696E6974006E7266BD
:10E32000785F6770696F74655F6F75745F696E6938
:10E3300074006E7266785F6770696F74655F696E8E
:10E340005F696E69740000006E7266785F75617255
:10E35000745F696E69740000BDCE01006E726678EC
:10E360005F756172745F7478006E7266785F756154
:10E3700072745F72780000006E7266785F75617209
:10E3800074655F696E6974004DD001006E726678C5
:10E390005F75617274655F7478006E7266785F7520
:10E3A000617274655F727800F01300200000000055
:10E3B0009811002005A801000100060000000000DF
:10E3C0000338FDD870473031323334353637383979
:10E3D00041424344454600000000000000000000A8
:10E3E000000000000000000000000000000000002D
:10E3F000D8E30100F0E3010004000000556E6B6EED
:10E400006F776E206572726F7220636F64650000B3
:10E410000000000008EA010001000000B4E801006B
:10E4200002000000A8E601000300000028E9010046
:10E43000040000007CE90100050000005CE8010028
:10E4400006000000F8E701000700000064E9010091
:10E450000800000070E8010009000000D4E8010095
:10E460000A000000F0E901000B00000090E6010046
:10E470000C00000088E801000D00000058EA0100CF
:10E480000E00000054E901000F00000090E90100B7
:10E4900010000000C4E90100110000006CEA010056
:10E4A0001200000040EA010013000000DCE9010056
:10E4B0008000000010E80100810000004CE701002E
:10E4C000820000000CE7010083000000ECE6010080
:10E4D0008400000028E701008500000034E8010006
:10E4E000860000003CE9010090000000D8E7010030
:10E4F00091000000CCE60100920000009CE80100C1
:10E5000000820000A4E9010001820000F0E801009F
:10E51000028200000CE901000084000068E70100AD
:10E520000184000014EA010002840000B0E7010049
:10E53000038400008CE7010051BF010019BF0100F6
:10E5400015BF0100FFFFFFFFFFFFFFFFFFFFFFFF02
:10E55000FFFFFFFF00000000000000000000D601E8
:10E5600006010000000000000000000000000000A4
:10E570000000000064E5010074E5010008000000EF
:10E58000CCED0100D4ED010000000000000000000F
:10E5900080E5010090E5010008000000BCED0100ED
:10E5A000CCED010000000000000000009CE501002F
:10E5B000ACE50100080000000100000700000000B9
:10E5C000000000000000000000000000000000004B
:10E5D000000000000000000000000000BCE5010099
:10E5E000DCE501000800000018110020B4ED010076
:10E5F000BCED01000000000000000000ECE501009F
:10E60000FCE5010008000000004040404040404060
:10E6100040404141414141404040404040404040F5
:10E620004040404040404040400502020202020299
:10E6300002020202020202020220202020202020E8
:10E6400020202002020202020202909090909090FC
:10E6500010101010101010101010101010101010BA
:10E66000101010100202020202028888888888882E
:10E67000080808080808080808080808080808081A
:10E6800008080808020202024000000009E6010032
:10E690004E52465F4552524F525F494E56414C4989
:10E6A000445F4441544100004E52465F4552524F30
:10E6B000525F534F46544445564943455F4E4F546D
:10E6C0005F454E41424C4544000000004E52465FBB
:10E6D0004552524F525F464541545552455F4E4F49
:10E6E000545F454E41424C45440000004E52465F47
:10E6F0004552524F525F4D555445585F554E4C4F01
:10E70000434B5F4641494C45440000004E52465F32
:10E710004552524F525F4D555445585F4C4F434BF5
:10E720005F4641494C4544004E52465F4552524F68
:10E73000525F4D555445585F434F4E445F494E49D3
:10E74000545F4641494C4544000000004E52465F2C
:10E750004552524F525F4D555445585F494E4954AA
:10E760005F4641494C4544004E52465F4552524F28
:10E77000525F424C455F495053505F52585F504B77
:10E78000545F5452554E4341544544004E52465FE7
:10E790004552524F525F424C455F495053505F5073
:10E7A0004545525F52454A454354454400000000E8
:10E7B0004E52465F4552524F525F424C455F495060
:10E7C00053505F4C494E4B5F444953434F4E4E4567
:10E7D00043544544000000004E52465F4552524F9C
:10E7E000525F4150495F4E4F545F494D504C454D2B
:10E7F000454E5445440000004E52465F4552524F2C
:10E80000525F4E4F545F535550504F525445440041
:10E810004E52465F4552524F525F4D4F44554C4504
:10E820005F4E4F545F494E495449414C495A454403
:10E83000000000004E52465F4552524F525F4D4F0E
:10E8400044554C455F414C52454144595F494E49FE
:10E850005449414C495A4544000000004E52465F1D
:10E860004552524F525F4E4F545F464F554E4400F3
:10E870004E52465F4552524F525F494E56414C49A7
:10E88000445F5354415445004E52465F4552524FE7
:10E89000525F444154415F53495A45004E52465FCE
:10E8A0004552524F525F494F5F50454E44494E4783
:10E8B000000000004E52465F4552524F525F535681
:10E8C000435F48414E444C45525F4D495353494E76
:10E8D000470000004E52465F4552524F525F494E2C
:10E8E00056414C49445F4C454E4754480000000097
:10E8F0004E52465F4552524F525F4452565F5457F4
:10E90000495F4552525F414E41434B004E52465F74
:10E910004552524F525F4452565F5457495F4552D9
:10E92000525F444E41434B004E52465F4552524F58
:10E93000525F494E5445524E414C00004E52465F84
:10E940004552524F525F53544F524147455F4655CF
:10E950004C4C00004E52465F4552524F525F4E554E
:10E960004C4C00004E52465F4552524F525F494E4A
:10E9700056414C49445F504152414D004E52465F12
:10E980004552524F525F4E4F5F4D454D00000000C3
:10E990004E52465F4552524F525F464F5242494493
:10E9A00044454E004E52465F4552524F525F4452CC
:10E9B000565F5457495F4552525F4F564552525524
:10E9C0004E0000004E52465F4552524F525F494E34
:10E9D00056414C49445F4144445200004E52465F08
:10E9E0004552524F525F5245534F55524345530083
:10E9F0004E52465F4552524F525F494E56414C4926
:10EA0000445F464C414753004E52465F5355434383
:10EA1000455353004E52465F4552524F525F424C4F
:10EA2000455F495053505F4348414E4E454C5F410E
:10EA30004C52454144595F455849535453000000D6
:10EA40004E52465F4552524F525F434F4E4E5F43C8
:10EA50004F554E54000000004E52465F4552524FF3
:10EA6000525F54494D454F55540000004E52465F89
:10EA70004552524F525F4255535900007761726EB2
:10EA8000696E670064656275670000001B5B313B5F
:10EA900033306D001B5B306D000000001B5B313BB1
:10EAA00033316D001B5B313B33326D001B5B313BFF
:10EAB00033336D001B5B313B33346D001B5B313BEB
:10EAC00033356D001B5B313B33366D001B5B313BD7
:10EAD00033376D00696E666F000000006572726FFB
